:020000040800F2
:10000000F82A01209D0100088F200008B31700087E
:100010008D2000087B0300083D240008000000003C
:10002000000000000000000000000000BD220008E9
:10003000490500080000000091200008BF220008C8
:10004000B7010008B7010008B7010008B7010008B0
:10005000B7010008B7010008B7010008B7010008A0
:10006000B7010008B7010008B7010008B701000890
:10007000B7010008B7010008B7010008B701000880
:10008000B7010008B7010008B7010008B701000870
:10009000B7010008B7010008B7010008B701000860
:1000A000B7010008B7010008B7010008B701000850
:1000B000B7010008B7010008B7010008B701000840
:1000C000B7010008B7010008B7010008B701000830
:1000D000B7010008B7010008B7010008B701000820
:1000E000B7010008B7010008B7010008B701000810
:1000F000B7010008B7010008B7010008B701000800
:10010000B7010008B7010008B7010008B7010008EF
:10011000B7010008B701000869230008B70100080B
:10012000B7010008B7010008B701000899040008EA
:10013000B7010008B7010008B7010008B7010008BF
:10014000B7010008B7010008B7010008B7010008AF
:10015000B7010008B7010008B7010008B70100089F
:10016000B7010008B7010008B7010008B70100088F
:10017000B7010008B7010008B7010008000000003F
:10018000B7010008B7010008DFF80CD000F0B8F89C
:1001900000480047E51F0208F82A0120064880476A
:1001A00006480047FEE7FEE7FEE7FEE7FEE7FEE75C
:1001B000FEE7FEE7FEE7FEE7592300088901000895
:1001C0002DE9F05F0546002092469B46884606468C
:1001D000814640241BE0284641464746224600F01F
:1001E0007FF853465A46C01A914110D3114618461B
:1001F000224600F066F82D1A67EB01084F462246AA
:100200000120002100F05DF817EB00094E41201E8F
:10021000A4F10104DFDC484631462A464346BDE8E6
:10022000F09F10B5431A934209D28318881803E04F
:1002300010F8011D03F8011D521EF9D210BD40EA4D
:1002400001039B0703D009E008C9121F08C0042A54
:10025000FAD203E011F8013B00F8013B521EF9D23B
:1002600010BDD2B201E000F8012B491EFBD270474D
:100270000022F6E710B513460A4604461946FFF772
:10028000F0FF204610BD421C10F8011B0029FBD1D5
:10029000801A704710B5002200E0521C835C8C5C11
:1002A000A34201D1002BF8D1D8B2E1B2401A10BD5F
:1002B000034611F8012B00F8012B002AF9D118464A
:1002C0007047202A04DB203A00FA02F10020704730
:1002D0009140C2F1200320FA03F319439040704784
:1002E000202A04DB203A21FA02F00021704721FA8B
:1002F00002F3D040C2F120029140084319467047F2
:10030000064C074D06E0E06840F0010394E8070062
:1003100098471034AC42F6D3FFF73AFFB4E8080828
:10032000E4E8080870B58C1810F8015B15F00703B5
:1003300001D110F8013B2A1106D110F8012B03E07E
:1003400010F8016B01F8016B5B1EF9D12B0705D486
:100350000023521E0DD401F8013BFAE710F8013BCF
:10036000CB1A921C03E013F8015B01F8015B521EEB
:10037000F9D5A142D8D3002070BDFEE70146F9208F
:1003800000F062B830B587B014216846FFF770FFFF
:100390001348016841F002010160016801F00201A7
:1003A0000591016841F00101016000684FF40064AB
:1003B00000F0010005900120CDE9004002900320EB
:1003C000084D03906946284600F046FA012221466E
:1003D000284600F03EFB044801F0ECF907B030BDC0
:1003E000303802400004024018000020022000F0D3
:1003F00023B800001CB501A8009004230322152196
:100400000C4801F0DDFA9DF804109DF8050001F09C
:100410000F0140EA01210748083801609DF80710E4
:100420009DF806200F3102F00F0241EA02214160DF
:100430001CBD00001800002002461521014801F0F3
:1004400003BB0000180000200B460246152101489E
:1004500001F028BB1800002010B5FFF793FFBDE89E
:1004600010400520FFF78ABF70B50A4D4FF40064B5
:1004700000222146284600F0ECFA0A2000F0DAF9C2
:1004800001222146284600F0E4FABDE870406420CD
:1004900000F0D0B900040240014800F059B8000053
:1004A000EC04002001681823CAB2103AB2FBF3F240
:1004B000054B6FF30901032A9B5CC36500D9091D35
:1004C00081650846704700002C6A020810B5014695
:1004D00000208B698A6A4FF0C07453B1B3F5005F96
:1004E00015D072B1012A0CD0022A0AD0032A09D1F0
:1004F00004E01AB1012A06D0022A03D1C96AC9014F
:1005000000D5012010BDC96AA142FAD010BD002A51
:10051000F7D0012AF2D0022AF3D0032AF3D010BD7B
:1005200030B50468256825F480252560046863607B
:100530008368402B036803D099600068C26030BDB7
:100540009A600068C16030BD704772B6FEE7000077
:100550002DE9F84304464FF00009CDF800906348B8
:100560004FF41651A56D0068B0FBF1F72E6894F8B2
:100570005C10082000FA01F131420FD021680A68AE
:1005800052070BD50A6822F004020A6094F85C1046
:100590008840A860606D40F00100606594F85C10D0
:1005A0004FF0010808FA01F0304208D0216849698B
:1005B000090604D5A860606D40F00200606594F8FB
:1005C0005C1004208840304208D0216809688907FF
:1005D00004D5A860606D40F00400606594F85C107C
:1005E00010208840304218D021680968090714D5C6
:1005F000A86020680168490304D50068000308D595
:10060000A16C07E00168C90503D4016821F0080165
:100610000160216C09B12046884794F85C102020C5
:100620008840304231D021680968C9062DD5A860BC
:1006300094F8350005282068016806D0490347D59D
:10064000006800031DD4616C1CE021F016010160FC
:100650002068416921F080014161206C08B9A06CDB
:1006600020B12068016821F00801016094F85C1055
:100670003F208840A86084F8358084F83490216D4C
:100680001FE0E16B09B120468847606D00282BD040
:10069000606DC00714D0052084F83500206801681B
:1006A00021F0010101600098401C0090B84203D87D
:1006B00020680068C007F6D184F8358084F834904B
:1006C000E16C002910D001B02046BDE8F043084796
:1006D0000168C905D5D4016821F01001016084F8D2
:1006E000358084F83490CCE7BDE8F8830C00002016
:1006F0002DE9F041044600F0B1F906465CB1022054
:1007000084F83500002584F834502068016821F011
:10071000010101600DE00120BDE8F08100F09EF9CB
:10072000801B052805D920206065032084F835004A
:10073000F2E720680068C007F0D1226811682048FD
:100740000140D4E901031843D4E903363343184385
:1007500063691843A3691843E3691843236A18437C
:100760000843616A042903D1D4E90B1319430843F0
:10077000106020684069666A20F0070130460E4329
:10078000012704280CD1A06A0643E06A40B1204644
:10079000FFF79CFE20B14020606584F83570BAE711
:1007A000206846612046FFF77DFE94F85C203F21DB
:1007B00091408160656584F835700020ACE70000E9
:1007C0003F8010F02DE9F0410446866D90F834002A
:1007D000002501280DD0012084F8340094F83570EC
:1007E0000020012F07D084F8340002252846BDE8F8
:1007F000F0810220FBE7022784F83570606520460F
:10080000FFF78EFE94F85C103F208840B0602068AF
:10081000016841F016010160206C20B12068016878
:1008200041F0080101602068016841F001010160A8
:10083000DCE7000070B5044600F010F90546601CC6
:1008400002D004480078044400F008F9401BA0429C
:10085000FAD370BD000000202DE9F84FDFF8BCA1ED
:100860000022012503264FF00F090AF1040BAAF11B
:10087000040E00BF0B6805FA02F42340A34270D1B6
:100880000F7907F00307012F01D0022F16D18768D7
:100890004FEA420806FA08FC27EA0C07D1F80CC018
:1008A0000CFA08FC4CEA070CC0F808C04768A743DC
:1008B0000C79C4F3001494403C4344600C79E44345
:1008C000A4070AD0C4684FEA420C06FA0CF7BC43EE
:1008D0008F6807FA0CF72743C7600C7904F003040C
:1008E000022C12D1D40800EB840CDCF8204057070E
:1008F000FF0E09FA07F824EA0804D1F8108008FA74
:1009000007F848EA0408CCF8208004684FEA420C53
:1009100006FA0CF7BC430F7907F0030707FA0CF748
:10092000274307604C6814F4403F70D03C4C276864
:1009300047F480472760246822F0030704F48044CA
:100940000094384C07EB040CDCF8084897074FEA92
:10095000177809FA08F7BC43334FB84202D1002791
:1009600024E054E0314FB84201D101271EE0304F5E
:10097000B84201D1022719E02E4FB84201D1032716
:1009800014E02D4FB84201D104270FE02B4FB8429D
:1009900001D105270AE02A4FB84201D1062705E018
:1009A000284FB84201D1072700E0082707FA08F7C7
:1009B0002743CCF80878DAF800405746D1F804C04D
:1009C0009C435FEACC2C00D51C433C60DBF8004024
:1009D0005F46D1F804C09C435FEA8C2C00D51C43D1
:1009E0003C60DEF800407746D1F804C09C435FEAE3
:1009F0008C3C00D51C433C60084F083F3C68D1F854
:100A000004C09C435FEACC3C00D51C433C60521CB4
:100A1000102AFFF42FAFBDE8F88F0000083C01401A
:100A2000443802400030014000000240000402400F
:100A300000080240000C0240001002400014024076
:100A400000180240001C02400069084000D001204C
:100A500070470AB1816170470904FBE7014880686B
:100A600070470000000000200248816802781144AD
:100A700081607047000000200B4810B5016841F408
:100A800000710160016841F480610160016841F416
:100A900080710160032000F06FF80F2000F006F86D
:100AA00000F024F8002010BD003C024070B50D4D50
:100AB00004464FF47A712878B1FBF0F00A490968CE
:100AC000B1FBF0F000F0CAFC48B9102C07D20022AC
:100AD0002146501E00F030F800206C6070BD0120EF
:100AE00070BD0000000000200C0000200A4808B57E
:100AF000016841F480410160006800F4804000908A
:100B00000548001F016841F080510160006800F055
:100B10008050009008BD000044380240002809DBE6
:100B200000F01F02012191404009800000F1E02007
:100B3000C0F8001170470000F0B40E4B1B680C4663
:100B4000C3F30223C3F10705042D00D90425191DA1
:100B5000072901D2002300E0DB1E012606FA05F179
:100B6000491E214099409E40761E16403143F0BCFC
:100B700001F065BC0CED00E0064900F007020868D2
:100B80004FF6FF03184040EA0220034A1043086072
:100B9000704700000CED00E00000FA052DE9F04779
:100BA0000E46050065D0DFF81481D8F80000F7B2D2
:100BB00000F00700B04207D288F80070D8F80000B3
:100BC00000F00700B04254D128683D4C810712D58F
:100BD000400703D5206840F4E050206028780007E3
:100BE00003D5206840F4604020602068A96820F0A8
:100BF000F000084320602878C0072DD0304968688D
:100C00000839012812D0022813D0032811D009680E
:100C1000890700292DDA216821F0030101432160B1
:100C2000FFF71CFF814641F2883A0EE0096889030C
:100C3000EFE709688901ECE7FFF710FFA0EB090176
:100C4000514502D90320BDE8F0872068696800F0AB
:100C50000C00B0EB810FEFD1D8F80010404601F046
:100C60000701B14207D90770006800F00700B042E1
:100C700001D00120E7E72878400705D52068E9681A
:100C800020F4E050084320602878000706D520684B
:100C9000296920F4604040EAC100206000F018F8A3
:100CA0002168084AC1F30311515CC8400649086035
:100CB00006480068FFF7FAFE0020C4E7003C024047
:100CC00008380240346A02080C00002004000020AA
:100CD000154810B5006810F00C02144813D04110EC
:100CE000042A0FD0082A0ED10F4C241F2268236833
:100CF00002F03F025B0207D52068C0F38810A0FB1A
:100D0000010106E0084610BD2168C1F38811A1FB6E
:100D100000010023FFF754FA2168C1F30141491C87
:100D20004900B0FBF1F010BD083802400024F40087
:100D30002DE9F84F04006ED02078DFF84C93C007FF
:100D4000A9F104054AD009F104000168C1F3810149
:100D5000012908D00068C0F3810002280AD1D9F81F
:100D60000000400206D52868800337D56068002857
:100D7000E1D033E06068B0F5803F10D0B0F5A02F2F
:100D8000286810D020F480302860286820F4802063
:100D900028606068A8B1FFF761FE06460DE028688C
:100DA00040F48030F4E740F480202860F7E700BF8B
:100DB000FFF754FE801B642873D828688003F7D59A
:100DC0000CE0FFF74BFE064605E000BFFFF746FECE
:100DD000801B6428F0D828688003F7D42078DFF8D7
:100DE000AC8280074FF0000A3ED5A748001D01687D
:100DF00011F00C0F08D00068C0F3810002280BD15D
:100E0000D9F80000400207D42868800716D5E068AA
:100E1000012800D112E033E1E068B8B10120C8F840
:100E20000000FFF71BFE064605E000BFFFF716FEB9
:100E3000801B0228C0D828688007F7D52868216958
:100E400020F0F80040EAC10028600DE0C8F800A0DA
:100E5000FFF704FE064604E0FFF700FE801B0228B1
:100E60001FD828688007F7D42078000722D5864F3E
:100E700087486169703771B101210160FFF7EEFDAC
:100E8000064604E0FFF7EAFD801B022809D838680F
:100E90008007F7D50EE0C0F800A0FFF7DFFD06469B
:100EA00005E082E0FFF7DAFD801B02287DD8386874
:100EB0008007F7D42078400768D5DFF8CCB1002749
:100EC0000BF13C0BDBF80000C0000BD4DBF800108A
:100ED00041F08051CBF80010DBF80000012700F052
:100EE000805000906B4E3068C00510D4306840F4DC
:100EF00080703060FFF7B2FD009005E0FFF7AEFDB7
:100F00000099401A022850D83068C005F6D55E4EC8
:100F1000A0686C3601280FD00528306810D020F06A
:100F200001003060306820F004003060A068B8B183
:100F3000FFF794FD00900FE0306840F00100F4E707
:100F400040F004003060F7E7FFF788FD0099411A90
:100F500041F28830814266D830688007F4D50EE0CF
:100F6000FFF77CFD009007E0FFF778FD0099411A3C
:100F700041F28830814256D830688007F4D42FB1CE
:100F8000DBF8001021F08051CBF80010A069C8B345
:100F90003D49091D0968C1F3810102294AD002288F
:100FA000504607D0C8F8600000E03CE0FFF756FD6F
:100FB00004463BE04746C8F86000FFF74FFD064691
:100FC00005E000BFFFF74AFD801B02282BD82868E8
:100FD0008001F7D4D4E907010843A16A2E4A4908E1
:100FE00002EB0141626A41EA8211084394F82C1035
:100FF00040EA0161C9F8001001203866FFF72EFDB4
:10100000044606E03EE000BFFFF728FD001B022873
:1010100009D828688001F7D534E000BFFFF71EFD2E
:10102000001B022802D90320BDE8F88F2868800140
:10103000F4D427E00128F7D0D9F80000E26900F4E1
:10104000800191421CD1226A00F03F01914217D1E8
:1010500047F6C071626A0140B1EB821F10D1A26AEB
:101060004FF0FF3300F4403103EB5202B1EB024F7B
:1010700006D194F82C1000F07060B0EB016F01D035
:101080000120D1E70020CFE70438024000004742AA
:10109000800E4742007000400000FFFF704770B5AF
:1010A000040009D0606A002540B125616561A56230
:1010B00094F8510040B10CE0012070BD6068B0F5BB
:1010C000827FF4D0E561F2E784F85050204600F0CA
:1010D00045F8022084F851002068016821F04001A1
:1010E0000160A088218900F4827001F40441084362
:1010F000A18901F400610843217C01F00201084349
:10110000217D01F001010843218B01F400710843A6
:10111000217F01F03801084394F8201001F080018C
:101120000843218D01F40051084321680860A0693B
:10113000042101EA104094F8241001F01001084342
:10114000216848602068C16921F40061C16165655A
:10115000012084F85100002070BD000070B586B0F9
:10116000064614216846FFF783F820493068884214
:101170003AD11F480025016841F4805101600068A0
:1011800000F4805005901A481438016841F00101BC
:1011900001600068694600F001000590E0200090C1
:1011A0000220CDE901050320039005200490114899
:1011B000FFF752FB114C104820604FF0C060606098
:1011C0004020C4E902050001206140006061800008
:1011D000C4E90605256220466562FFF789FA08B171
:1011E000FFF7B3F9B464A66306B070BD00300140E8
:1011F000443802400000024058640240EC040020E1
:101200002DE9F84F044690F8500000271D46164679
:10121000894601280DD04FF0010B84F850B0FFF73C
:101220001DFC804694F85100BA46012804D00227DC
:1012300093E00220BDE8F88FB9F1000F73D0002EC3
:1012400071D0032084F85100C4F854A0C4F8309041
:10125000A686E686C4F838A0A4F83CA0A4F83EA070
:10126000C4F844A0C4F840A0A068B0F5004F09D16C
:101270002068016821F0400101602068016841F4A4
:101280008041016020680168490603D4016841F08B
:1012900040010160E068B0F5006F606803D030B3D2
:1012A000012E24D041E008B1012E1CD1206B216811
:1012B0000088C86006E020688168890709D5216B2D
:1012C0000988C160206B801C2063E08E401EE08690
:1012D00009E0FFF7C3FBA0EB0800A84202D3681C9B
:1012E00001D031E07DB3E08E0028E4D120E0206B16
:1012F00021680078087306E020688168890709D5AD
:10130000216B09780173206B401C2063E08E401E26
:10131000E0860AE0FFF7A2FBA0EB0800A84203D397
:10132000681C02D010E017E06DB1E08E0028E3D118
:1013300042462946204600F039FF08B1202060656A
:10134000A06818B106E0FFE7032706E02068C1683F
:1013500080680090606D00B1012784F851B084F876
:1013600050A0384666E700002DE9F041044690F8A9
:1013700050000026012809D0012784F8507094F805
:1013800051000025012804D002264EE00220BDE8CD
:10139000F08189B182B1032084F851006565216331
:1013A000A286E286A56365642564A587E587A068B3
:1013B000B0F5004F02D00BE0012636E0206801684E
:1013C00021F0400101602068016841F48041016022
:1013D000A16C18480864A16C1748C863A16C174831
:1013E000C864A06C0565E38E2268216B0C32A06C8A
:1013F000FFF7E8F938B1606D40F010006065012634
:1014000084F8517011E020680168490603D401682E
:1014100041F0400101602068416841F020014160D5
:101420002068416841F00201416084F85050304624
:10143000ADE700003F210008492100081D210008F8
:10144000704770474FF0E0210428086903D020F06E
:1014500004000861704740F00400FAE710B5401E30
:10146000B0F1807F01D3012010BD4FF0E024606116
:101470000F21601700F0E3FF0020A061072020612A
:10148000002010BD7047704770B590F83C20012ACD
:1014900032D0012480F83C40022280F83D200368CD
:1014A0005A689D6822F070060A6832435A60134BEE
:1014B00002689A4214D0B2F1804F11D0104B9A4278
:1014C0000ED0104B9A420BD00F4B9A4208D00F4BC4
:1014D0009A4205D00E4B9A4202D00E4B9A4204D14A
:1014E000496825F080031943916080F83D40002150
:1014F00080F83C10084670BD022070BD000001401D
:101500000004004000080040000C004000040140BE
:10151000004001400018004010B5040003D094F8CA
:101520003D0010B107E0012010BD002084F83C0010
:10153000204600F01FF8022084F83D00211D20689D
:1015400000F018FF012084F8460084F83E0084F87B
:101550003F0084F8400084F8410084F8420084F899
:10156000430084F8440084F8450084F83D000020DE
:1015700010BD000008B500680B49884212D10B4825
:10158000016841F0100101600068002200F01000C5
:10159000009011463620FFF7CFFABDE8084036200C
:1015A000FFF7BCBA08BD0000001000404038024000
:1015B00090F83D10012901D001207047022180F8E8
:1015C0003D100168CA6842F00102CA600068114912
:1015D000884214D0B0F1804F11D00F4988420ED00C
:1015E0000E4988420BD00E49884208D00D498842E6
:1015F00005D00D49884202D00C49884204D1816847
:1016000001F00701062903D0016841F001010160E2
:101610000020704700000140000400400008004026
:10162000000C004000040140004001400018004050
:10163000704770B50446006801694FF00005C94362
:10164000890715D4C168C943890711D4E91E01610E
:1016500001202077206880698007204602D0FFF7AC
:10166000E7FF04E000F098F8204600F096F82577B0
:1016700020680169C943490717D4C168C9434907AC
:1016800013D46FF004010161022020772068806983
:1016900010F4407F204602D0FFF7CAFF04E000F0BC
:1016A0007BF8204600F079F8257720680169C94366
:1016B000090716D4C168C943090712D46FF008019D
:1016C0000161042020772068C0698007204602D08D
:1016D000FFF7AEFF04E000F05FF8204600F05DF891
:1016E000257720680169C943C90617D4C168C94371
:1016F000C90613D46FF0100101610820207720681B
:10170000C06910F4407F204602D0FFF791FF04E04B
:1017100000F042F8204600F040F825772068016983
:10172000C943C90708D1C168C943C90704D1891E83
:101730000161204600F032F820680169C9430906BA
:1017400009D4C168C943090605D46FF0800101615D
:101750002046FFF797FE20680169C943490609D46E
:10176000C168C943490605D46FF0400101612046B4
:1017700000F01EF820680169C94389060BD4C168CE
:10178000C943890607D46FF0200101612046BDE8F6
:101790007040FFF778BE70BD70477047006803491E
:1017A000884202D101201FF005BF704700100040A1
:1017B0007047FEE710B586B0044614216846FEF770
:1017C00057FD208900900120019002900220039093
:1017D00069462068FFF740F86089009069466068B4
:1017E000FFF73AF806B010BD70B50646082400258C
:1017F00000F061FC13E06806050E0021304600F0A1
:1018000048FC022005F035FA0121304600F041FC89
:10181000012005F02EFA304600F044FC0543641E1A
:10182000E4B2E8D20021304600F033FC304600F04C
:1018300060FC284670BD10B50446002100F050FC45
:10184000012005F016FA0121204600F022FC0120BB
:1018500005F00FFA0021204600F01BFCBDE8104007
:10186000012005F006BA000070B50C4606460825B2
:1018700019E000BF00F00DFC022005F0FAF904F0B9
:101880008001304600F02CFC012005F0F2F96006E2
:10189000040E012005F0EDF90121304600F0F9FBBE
:1018A000012005F0E6F96D1EEDB24FF00001304663
:1018B000E0D200F0EEFBBDE87040022005F0D9B99F
:1018C00010B50446012100F00BFC012005F0D1F910
:1018D0000121204600F0DDFB012005F0CAF90021BE
:1018E000204600F0D6FBBDE81040022005F0C1B94B
:1018F00010B50446012100F0F3FB022005F0B9F910
:101900000121204600F0C5FB012005F0B2F90021BD
:10191000204600F0E5FB012005F0ABF90021204650
:1019200000F0B7FBBDE81040012005F0A2B910B5EA
:101930000446002100F0ADFB022005F09AF90021D9
:10194000204600F0CDFB012005F093F9012120464F
:1019500000F09FFB012005F08CF90121204600F0EA
:10196000BFFBBDE81040012005F083B970B5054606
:10197000052400F0A0FB0121284600F08AFB05E0C9
:10198000641EA4B2012005F074F984B1284600F069
:1019900089FB0028F4D1284600F0ABFB0021284643
:1019A00000F077FB022005F064F9002070BD2846A6
:1019B00000F09FFB2846FFF7BAFF012070BD000032
:1019C0002DE9F0411D4617460C468046069EFFF75E
:1019D0008FFF6006010E4046FFF746FF4046FFF7C7
:1019E000C5FF28B14046FFF7A2FF0120BDE8F08106
:1019F00039464046FFF738FF4046FFF7B7FF4046FD
:101A0000FFF776FF012000EB4400C1B24046FFF72C
:101A10002BFF4046FFF7AAFF00246F1E0AE000BF1D
:101A2000FFF7E2FE3055BC4202DA4046FFF703FF03
:101A3000641CE4B2AC424046F2D3FFF741FF40469B
:101A4000FFF775FF0020D1E770B516460C46054636
:101A5000FFF74EFF6006010E2846FFF705FF2846F8
:101A6000FFF784FF31462846FFF7FEFE2846FFF7C2
:101A70007DFF2846FFF73CFF012000EB4400C1B288
:101A80002846FFF7F1FE2846FFF770FF2846FFF7CC
:101A9000ABFE04462846FFF713FF2846FFF747FF33
:101AA000204670BD2DE9F0411D4616460C460746FE
:101AB000FFF71EFF6006010E3846FFF7D5FE3846D9
:101AC000FFF754FF28B13846FFF731FF0120BDE88A
:101AD000F08131463846FFF7C7FE3846FFF746FF2C
:101AE00029463846FFF7C0FE3846FFF73FFF384625
:101AF000FFF71DFF012005F0BCF80020E7E72DE906
:101B0000F04104461D4616460F462A2000F0FAF919
:101B1000204600F0E7F9304600F0E4F92B2000F011
:101B2000F1F9384600F0DEF9284600F0DBF9BDE8AF
:101B3000F0412C2000F0E6B970B55D1A141A641C4F
:101B40006D1C143314316C439BB289B2049EFFF7B1
:101B5000D6FF0D4D4FF40060E8602868016841F43D
:101B600000610160A2B231462846FFF7FDFB07483D
:101B7000006841680029FCD10020E86028680168FD
:101B800021F40061016070BD94040020EC04002089
:101B900010B514460B460246FFF7B1FF2046BDE8DC
:101BA000104000F09FB92DE9F04780461F4603F131
:101BB000130083B21646501E82B20C4601F1140087
:101BC00081B24046DDF82090FFF799FF0AE04546D4
:101BD00004E0484600F086F96D1CADB2B542F8D37A
:101BE000641CA4B2BC42F2D3BDE8F08710B56A4CC5
:101BF00001220E212046FEF72CFF0022082120465C
:101C0000FEF727FF002204212046FEF722FF642072
:101C100005F022F8012204212046FEF71AFF642075
:101C200005F01AF8112000F06DF9782005F014F88D
:101C3000362000F067F9002000F078F93A2000F033
:101C400061F9052000F072F9B22000F05BF90C2078
:101C500000F06CF90C2000F069F9002000F066F942
:101C6000332000F063F9332000F060F9B72000F072
:101C700049F9352000F05AF9BB2000F043F919204A
:101C800000F054F9C02000F03DF92C2000F04EF98E
:101C9000C22000F037F9012000F048F9C32000F01D
:101CA00031F9122000F042F9C42000F02BF9202075
:101CB00000F03CF9C62000F025F90F2000F036F9BD
:101CC000D02000F01FF9A42000F030F9A12000F08E
:101CD0002DF9E02000F016F9D02000F027F90420BB
:101CE00000F024F90D2000F021F9112000F01EF978
:101CF000132000F01BF92B2000F018F93F2000F012
:101D000015F9542000F012F94C2000F00FF91820BA
:101D100000F00CF90D2000F009F90B2000F006F995
:101D20001F2000F003F9232000F000F9E12000F06B
:101D3000E9F8D02000F0FAF8042000F0F7F80C20C1
:101D400000F0F4F8112000F0F1F8132000F0EEF8A4
:101D50002C2000F0EBF83F2000F0E8F8442000F0E1
:101D6000E5F8512000F0E2F82F2000F0DFF81F2006
:101D700000F0DCF81F2000F0D9F8202000F0D6F8A1
:101D8000232000F0D3F8212000F0BCF8BDE810407B
:101D9000292000F0B7B80000000002402DE9FF4FF5
:101DA00081B00446DDF83C9000904FEA59074FF0AF
:101DB0000008780700D0012000EBD70000FB09FBEA
:101DC000203AD0B20390029802994844401E83B250
:101DD000E019401E82B22046FFF791FE002553E035
:101DE000B9F10C0F2AD0B9F1100F2ED0B9F1180F9C
:101DF0002ED0B9F1200F49D12749039801EB80106B
:101E0000002610F805A0109800284FF0010000FAF5
:101E100006F000EA0A0022D020B12046049A029976
:101E2000FFF7B6FE641C0098A4B2201AB84225D170
:101E30000298009C401C80B2029023E0039817494E
:101E400000EB400001EB8000DAE71549039803E05E
:101E50000398144900EB400001EB0010D0E708B1F3
:101E6000049800E00E9800F03DF808F10100C0B2BF
:101E7000B0FBF7F1804607FB118050B1761CF6B23B
:101E8000082EC0D36D1CADB25D45A9D305B0BDE829
:101E9000F08F4FF00008F5E778860208446A0208E0
:101EA000B86E0208A87402082DE9FE4F9946DDE9D4
:101EB0000D6714468A460546DDF830800CE0CDF803
:101EC00000804B4651462846CDE90167FFF766FF83
:101ED00005EB560085B2641C2278002AEFD1BDE8DC
:101EE000FE8F000008B5010A8DF800108DF8010082
:101EF0000123022269460248FFF782F908BD00006B
:101F00009404002070B5084C0546002202212046AA
:101F1000FEF79FFD284600F009F82046BDE8704016
:101F200001220221FEF795BD0000024001B5012308
:101F30001A4669460148FFF763F908BD940400207A
:101F4000094808B5016841F4800101600068002279
:101F500000F48000009011463B20FEF7EDFDBDE847
:101F600008403B20FEF7DABD30380240F0B587B0BC
:101F700014216846FEF77CF91E480024016841F0F0
:101F800020010160016801F020010591016841F024
:101F900080010160016801F080010591016841F054
:101FA000010101600068144E00F001004FF400755B
:101FB0000590002229463046FEF74BFD0F4F0122C7
:101FC0000E213846FEF745FD00950125CDE9015467
:101FD000694630460394FEF73FFC0E20CDE900052C
:101FE0000320CDE9024069463846FEF735FC07B0CC
:101FF000F0BD0000303802400014024000000240F2
:10200000104810B50E4901604FF482714160002103
:1020100002228160C0E90312012242615202C0E93A
:1020200006210162416281620A21C162FFF737F82D
:10203000002803D0BDE81040FEF787BA10BD0000AD
:1020400000300140940400201CB500240E48009488
:102050000C49019401605321C0E9011440F2E731B9
:102060008461C160FFF758FA08B1FEF76EFA009478
:10207000694605480194FFF707FA002801D0FEF7EA
:1020800064FA1CBD001000404C050020FEE7FEE78E
:1020900070474289406811B18169114300E0110421
:1020A0008161704710B501890068FEF7CDFC0128F9
:1020B00000D0002010BD10B586B00446142168463B
:1020C000FEF7D6F8208900900020019001200290B0
:1020D0000220039069462068FEF7BEFB06B010BDE3
:1020E0000289006811B18169114300E01104816126
:1020F000704710B586B0044614216846FEF7B8F85C
:10210000208900901120019000200290022003906D
:1021100069462068FEF7A0FB06B010BD10B5806BC5
:1021200001684A6822F003024A60416D41F01001E3
:102130004165012180F85110FEF7B0FF10BD10B5C8
:10214000806BFFF77EF910BD38B50546846BFEF74E
:1021500085FC024628680068C00523D420684168D1
:1021600021F0200141602068416821F002014160B6
:102170006421204600F01AF818B1606D40F020008C
:102180006065A068002118B92068C2688068009066
:10219000E186012084F85100606D18B12046FEF7F9
:1021A0007DFF38BD2046FFF74BF938BD38B50446F2
:1021B0001248134B0068B0FBF3F04FF47A735843A6
:1021C00000906068B0F5827F0DD10B46009200222E
:1021D0008021204600F016F870B1606D40F02000BC
:1021E0006065032038BD009830B1401E0090206823
:1021F0008068C0430006F6D5002038BD0C000020E2
:1022000000366E012DE9F8431E4691468846044685
:10221000089DFEF723FC401B351AFEF71FFC0746FE
:1022200025480068C0F3CB30684338E0701C37D0D5
:10223000FEF714FCC01BA84203D215B1009860B38E
:102240002CE02068416821F0E00141606068B0F551
:10225000827F0BD1A068B0F5004F02D0B0F5806F3F
:1022600004D12068016821F040010160A06AB0F546
:10227000005F09D12068016821F4005101602068E5
:10228000016841F400510160012084F851000020F0
:1022900084F850000320BDE8F8830025401E00901C
:1022A0002068816838EA010004D000214945BDD189
:1022B0000020F0E70121F9E70C0000207047FEF74D
:1022C000D3BB000030B593B030216846FDF7D0FF96
:1022D00014210CA8FDF7CCFF1D480025016841F032
:1022E00080510160006800F0805011901948016829
:1022F00041F4804101600068022400F480401190A4
:1023000001200090000401908001CDE9064008AA58
:102310000420A82182E813000B906846FEF708FD10
:1023200008B172B6FEE70CA90F2081E831004FF426
:10233000A0500F904FF48050109005210CA8FEF78C
:102340002DFC002801D072B6FEE713B030BD0000AE
:1023500040380240007000400248016841F47001BA
:102360000160704788ED00E00148FFF762B90000A6
:102370004C050020F0B50268254C264D264E274F0F
:10238000274B4FF0804CA04209D0604507D0A842AF
:1023900005D0B04203D0B84201D0984204D122F017
:1023A000700E4A6842EA0E02A0421BD0604519D066
:1023B000A84217D0B04215D0B84213D0984211D0DD
:1023C000184DA8420ED0184DA8420BD0174DA84268
:1023D00008D0174DA84205D0164DA84202D0164D80
:1023E000A84203D122F44075CA682A434D6922F0FD
:1023F00080022A4302608A68C2620A688262A0423E
:1024000001D0984201D10969016301214161F0BD08
:10241000000001400004004000080040000C0040A3
:1024200000040140004001400044014000480140D8
:1024300000180040001C004000200040FEE7090793
:10244000090E002804DB00F1E02080F8001470473A
:1024500000F00F0000F1E02080F8141D704702E04A
:1024600008C8121F08C1002AFAD17047704700201F
:1024700001E001C1121F002AFBD1704770B504466C
:1024800000256FF02F0608E02068411C21600078CD
:1024900005EB850106EB410145182068007800F046
:1024A00007F80028F0D1284670BD89B216F0FBB8B5
:1024B0003038092801D801207047002070470000FB
:1024C00010B54021074801F0D3FB00221E21064829
:1024D0001FF0CAF8054CA06002F048FD00202070F3
:1024E00010BD0000D820012015500008AC010020CC
:1024F00070B5B1F90030B2F90040A34200DC2346C8
:102500000380B1F90250B2F90240A54200DD2C4629
:102510004480B1F90460B2F90450AE4200DA3546A5
:102520008580B1F90610B2F90620914200DB114610
:10253000C1800120AB4201DC8C4200DD002070BD77
:10254000F8B50D460446B0F90000B1F90010164682
:10255000884247DBB4F90210B5F90220914241DB11
:10256000B4F90410B5F9042091423BDCB4F906102B
:10257000B5F90620914235DC96B3ADF800006088CD
:10258000ADF8020032466946284600F099F8002866
:1025900027D0A088ADF800006088ADF80200324670
:1025A0006946284600F08CF800281AD02088ADF83B
:1025B0000000E088ADF8020032466946284600F087
:1025C0007FF800280DD0A088ADF80000E088ADF8B5
:1025D000020032466946284600F072F8002800D012
:1025E0000120F8BD0020F8BDB0F90020B1F9043099
:1025F0009A4213DCB0F90420B1F900309A420DDBA5
:10260000B0F90220B1F906309A4207DCB0F90600B1
:10261000B1F90210884201DB0120704700207047A9
:10262000F8B50D460446B0F90400B1F9001016469D
:10263000884243DBB4F90600B5F9021088423DDB5D
:10264000B4F90000B5F90410884237DCB4F902107F
:10265000B5F90620914231DC76B3ADF80000608810
:10266000ADF8020032466946284600F029F818BB4A
:10267000A088ADF800006088ADF8020032466946D7
:10268000284600F01DF8B8B92088ADF80000E088B1
:10269000ADF8020032466946284600F011F858B9F4
:1026A000A088ADF80000E088ADF802003246694627
:1026B000284600F005F808B10020F8BD0120F8BD5B
:1026C0002DE9FC4114460E46B1F90020B0F9001086
:1026D00005468A423ADBB5F90400824236DCB6F997
:1026E0000270B5F90220974230DBB5F906309F42FF
:1026F0002CDC002C75DD401A9A1A401C521C00B2CA
:1027000012B200EBD07002EBD27240105210904225
:1027100000DB1046844200DD0446ADF80010288836
:1027200000222044ADF804006888ADF802006888F3
:1027300031462044ADF806006846FFF7C1FF40B1BE
:10274000BDF804002044ADF804003FE00020BDE8DF
:10275000FC81E8880022001BADF80200E888ADF893
:10276000060031466846FFF7ABFF28B1BDF804000C
:102770002044ADF8040011E0A8880022001BADF849
:102780000000A888ADF8040031466846FFF798FFBE
:1027900050B1BDF80000001BADF80000BDF802000C
:1027A000001BADF8020016E06888ADF802006888EA
:1027B00000222044ADF8060031466846FFF780FF4E
:1027C00070B1BDF80000001BADF80000BDF80600B8
:1027D0002044ADF80600314668461CF05DFAB6E7C5
:1027E000FFE70120B3E710B5B1F90040B2F90030BE
:1027F0009C4200DA23460380B1F90240B2F902306C
:102800009C4200DA23464380B1F90440B2F9043017
:102810009C4200DD23468380B1F90610B2F9062000
:10282000914200DC1146C18010BD0000084A516D84
:1028300020B1481C032803D3002001E021B1481E29
:10284000117819B100F0FEBA0220F9E723F050BD6B
:10285000280300200F2801D300207047014951F8B8
:1028600020007047680200200E2801D30020704726
:10287000014951F820007047A40200200E2801D31E
:1028800000207047014951F82000704730020020B5
:102890000E2801D300207047014951F820007047ED
:1028A000C04F030870B50C4601461048006819F087
:1028B0009FF90646002119F09BF905464FF00101EA
:1028C00030465CB118F099F90949284615F040FEE8
:1028D0003046BDE8704001211BF003BD18F058FDE3
:1028E0002846BDE87040034915F032BEDC020020E6
:1028F0008C03002098030020F8B57F4C05467D48E6
:1029000060607E48A06004F10C001DF0B2FB042161
:1029100004F10C001DF07DFEFF2104F10C001DF000
:10292000D9FC40F6EE600E2161F31F10C108BDF81E
:10293000000061F304003B2180B261F34A101D21C5
:1029400080B261F3CF20ADF8000080B20090BDF8F6
:10295000001004F10C001DF0A2FC47F6FF7104F119
:102960000C001DF0FAFD042104F10C001DF070FDB7
:1029700004F114001DF07DFB002104F114001DF092
:10298000A9FC5F4904F114001DF0D0FC5C4904F17E
:102990001400891F1DF0DAFC012104F114001DF060
:1029A000CDFC5848008881B204F114001DF0DFFC12
:1029B000142104F114001DF04BFD04F11C001DF066
:1029C00058FBFF2104F11C001DF084FC4E4E3046E4
:1029D00010F0EDFE014604F11C001DF060FC04F156
:1029E00024001DF046FBFF2104F124001DF072FCC1
:1029F000304610F0DCFE014604F124001DF04FFCCF
:102A000004F12C001DF035FB662104F12C001DF0B3
:102A1000EDFD662104F12C001DF0A5FC04F134004D
:102A20001DF027FB04F13400A1681DF0D5FD6FF007
:102A30007F46304610F0BBFE014604F134001DF025
:102A4000BFFD04F13C001DF014FB04F13C00616883
:102A50001DF0C2FD2D4810F0AAFE014604F13C0015
:102A60001DF0AEFD04F144001DF003FB04F1440031
:102A7000A1681DF0B1FD304610F099FE014604F149
:102A800044001DF09DFD284618F0DAFC32110021AB
:102A900020601BF07BFA11F003FC11F05FFC14388E
:102AA00005B211F0FDFB11F013FC01462A46206827
:102AB0001BF0FBFD142120681CF05EF84FF48032FF
:102AC00004F10C01206818F09FF8012120681BF028
:102AD000A5FC002504E02946206801F0B7FF6D1C25
:102AE0002846FFF7CBFE0028F5D10121FFF7DAFEDB
:102AF0002068F8BD54D80208DC020020B04B03085F
:102B0000FE4F03089800002065494C00BEB0B1009C
:102B10002DE9F04FA54D97B0A349E964A449296573
:102B200003F040FC044603F0F5FE204603F082FE6D
:102B30001590204603F046FE1490204603F0CAFC90
:102B40001390204618F07CFC06461BF09DFAFA21F3
:102B500030461BF0C3FC1221304618F0DFFB002387
:102B60001A469449304617F0D7FF30461BF04CF90F
:102B7000304602F05DF8AE62E863204603F0CCFD1B
:102B800083468D4A8D4920461BF092FC0022062187
:102B900020461BF02FFF01240220CDE900402346F0
:102BA00000220321029415981BF054FC0420CDE967
:102BB0000040012300220321029414981BF04AFCD8
:102BC0000620CDE900400294012300220321A86AD7
:102BD0001BF040FC0820CDE9004001230022032126
:102BE000029413981BF036FC0A20CDE90040012323
:102BF00000220321584602941BF02CFC4FF47A7AF1
:102C0000002251466E481EF02FFDA8641EF0FAFD0A
:102C10006C7000224FF4FA516A481EF025FD012124
:102C20001EF0FFFD03A80EF07FFB67480990624E7F
:102C3000664800243C3EC8274FF4FA78DFF89091AC
:102C4000CDF8100011F02CFB11F042FB05210A9089
:102C5000CDE90B0136F81410B1FBF7F0B1FBF8F237
:102C600007FB101000F5E16040420E9008FB1210C7
:102C700000F6C4100D9009EB4400039003A80EF079
:102C800047FC641C142CDDD340F6B836324654465B
:102C90005146159818F06EFF32462146149818F0E8
:102CA00069FF32462146139818F064FF32462146E8
:102CB000584618F05FFF32464FF44871E86B18F041
:102CC00059FF4FF4FA694A460021A86A18F052FFEA
:102CD00040480990E86B03907042CDE90D40012017
:102CE00006020A90CDE90B063B48049000200690AE
:102CF00003A80EF00DFC1CF0D4FC14F00BFF0446EE
:102D0000364915F025FC204619F082F818F082FFAC
:102D1000411E20461AF0B6FD1CF0C3FC16F040F927
:102D200007462FA116F0A6FF0022022138461BF00D
:102D3000C4FE00223846296D1BF0D2FE0022082175
:102D400038461BF0D3FE4A464146384618F030FF5D
:102D50004FF00008CDF80080434609222046A96ABA
:102D600017F0B6FF6FF01303112221463846CDF855
:102D7000008017F0ADFF2048099003944FF4C8700D
:102D80000D901E480E900A200A96CDE90B601C4853
:102D9000069003A80EF0BCFB686A1BF009FF686A86
:102DA00017B0BDE8F08F000054D8020828030020B7
:102DB000B04B03088D3A02088496030806500308B6
:102DC0004D6202083D3E02085D130108CD3D020838
:102DD000A42201205B140108AB2400086404002035
:102DE0004C56474C2044656D6F0A4D7573696320DE
:102DF000706C617965720000F913010810F5FFFF2E
:102E0000BFB4010810B50D4C002020706168C4E902
:102E100001010B49A06A0EF043FAA06A1AF0C2FB46
:102E20004FF48071E06B15F03EFCA06C1EF0EAFCE4
:102E3000A06DBDE81040012118F0AABA28030020B7
:102E4000293A020810B523F053FABDE8104000F00B
:102E500001B8000070B51B4C90B001202070A06834
:102E6000606068460EF060FA216E60680A46491E8E
:102E7000CDE90801079014490191A16A0091101A47
:102E80004FF47A7148431E21B0FBF1F00A90002004
:102E90000D900E48039068460EF03AFBA06C1EF0B1
:102EA000BDFC0025266C606DFFF7F2FC024629464A
:102EB00030460FF07DF90121A06D17F09EFE10B095
:102EC00070BD000028030020293A0208C53D020811
:102ED000FEB507461EF064FB0025354C06460095FE
:102EE00037B1F868606038461EF08CFC606802E01C
:102EF00011F0D6F9606000691BF05AFE6068406905
:102F000008B11BF055FE6068C0691BF051FE606897
:102F1000006A1BF04DFE60680169E1B31CF0FEF829
:102F20001CF07AF86068B0F8501199B30168097C18
:102F3000890715D511F012FA401E07B2606811F02A
:102F4000C7F9401E03B20022114601A800970EF0F7
:102F5000FCFF606801A90268926B516004F024FED6
:102F600060684FF48071303017F0DCFA606820211F
:102F700000F5987017F0D6FA6068A0F85051304606
:102F80001EF008FB009060680068436A13B1226875
:102F90000099984700E007E017F006F900F036F8CE
:102FA000BDE8FE4000F006B8A0F85051FEBD00009C
:102FB0005800002070B50A4D002400BFC4EBC406C1
:102FC00055F8260008B117F063F905EB86001C21BF
:102FD00017F0A8FA641CE4B2042CEFD370BD000013
:102FE000B4210120084949680AE04A68824202D0B7
:102FF0000A68824203D10A7E42F001020A764969D8
:103000000029F2D1704700002C000020704700001A
:103010000421014800F02CBECC2001201C210148D5
:1030200000F026BEE42001202DE9FF5F0446DDE923
:103030000E0613B9B0F5807F7ED0B6F900504FF080
:10304000FF376D42454307EB25252DB22580B6F9A4
:1030500002C0CCF1000C0CFB00FC07EB2C273FB2AC
:103060006780B6F900C0A1EB0C0141434FF0020CA0
:103070000CEB212109B2A180B6F90280A2EB080273
:1030800042430CEB222000B2E080002B7ED04FF0B8
:103090000A0A93FBFAF5684200EB800003EB400755
:1030A00005F1010928B21EF0EFFC00900FFA89F03B
:1030B0001EF0EAFC83465A3528B21EF0E5FC804635
:1030C00009F15A0000B21EF0DFFC0146009AC7F178
:1030D0000A0000FB02F300FB08F00BFB073301FBC7
:1030E000070193FBFAF291FBFAF04FEA601AB4F988
:1030F0000010B4F902000AFB01FCCDF80CC0551118
:10310000378805FB10C207EBA2220FFA82F905FBF4
:1031100001F2BB46029277880AFB002107EBA1214E
:103120000BB2B4F90410BE460AFB01FC05FB10C249
:103130000BEBA22216B200E02FE005FB01F7CDE970
:10314000007CB4F90680DDF80CC00AFB007005FBBA
:1031500018C1DDF804C0009F05FB18C5029A0AFBE0
:10316000087C0AFB08220BEBA1210EEBAC270EEB2F
:10317000A02009B20EEBA2220BEBA5250FFA87FCCB
:1031800000B212B22DB24F46494500E00EE000DA1F
:103190000F46B54216DAA84615E000202080491EE9
:1031A0006080A180521EE280BDE8FF9F32882A44E1
:1031B000228072883A44628032881144A1807188EA
:1031C00008444FE0B046474504DA4F46494506DA21
:1031D0000F4604E0B54201DA2F4600E0374627806B
:1031E0004F46494500DD0F46B54201DDA84600E0E7
:1031F000B046474503DD4D46494505DC01E0B54293
:1032000001DD294600E03146A1809A4201DA1546E7
:1032100000E01D46844501DA614600E001468D422A
:1032200005DA9A4201DA114606E0194604E08445BF
:1032300001DA614600E0014661809A4201DD1146F3
:1032400000E01946844501DD654600E00546A942D7
:1032500005DD9A4201DD104604E0184602E084458F
:1032600000DD6046E0809FE72DE9FE4F0446D0F880
:1032700000B0B0F90800E589081AB4F90A10511A2B
:10328000D4E90932B5F5807F38D0A589ADB3A66BF6
:10329000704345114E437011266BE16A06FB05F73A
:1032A00001FB1077694306FB001003EBA72902EB33
:1032B000A02080460612B4F904004FEA2927B8423C
:1032C0004EDD002F4CDBB4F90610B14248DD002E74
:1032D00046DB94F834104A0745D58A0704F11403F5
:1032E00022D400FB067045004FF0020A0BEB0501EB
:1032F0005246184617F0CCF827E00DE0256BE66A39
:1033000005FB00F706FB1177464305FB016003EB65
:10331000A70902EBA000CCE7A56B68434D4303EB84
:10332000601902EB6510C4E700FB067000EB400576
:103330004FF0030A0BEB05010222184617F0A8F81C
:10334000E81C584410F8010CA07594F83400C0072C
:103350001FD04FF4FC60ADF80000A18A814218D163
:103360000020BDE8FE8F32B204F118002369CDE9D8
:103370000102002539B2AA468B4614F0E7FA009004
:10338000BDF80000A082DDE90102594614F076FA8A
:10339000DAE7E07C78B1A4F83C90A4F83E80A4F889
:1033A0004070A4F84260656484F848A02046BDE8F7
:1033B000FE4F00F002B80120D3E72DE9F04F04469C
:1033C00090F83C10D0F8009090F83E0087B04FF095
:1033D000FF36702907DAB4F940203546012A00D5B6
:1033E000002580310DE0902916DDB4F94020B4F9B4
:1033F00004300125521C9A4200DB0025A1F27F1106
:103400004942C9B28846702809DAB4F94210012944
:1034100000D50026803010E00025FF21F2E790283B
:103420000DDDB4F94210B4F906200126491C914281
:1034300000DB0026A0F27F104042C7B201E0002668
:10344000FF2760690090A07D05900020834682469A
:10345000049094F83400400744D594F84810606C08
:1034600011FB05014944022201A817F011F8A088B8
:1034700094F8481010FB01F0616C022206FB001169
:10348000494403A817F004F8A18894F8480011FBF8
:1034900000F1626C06FB012210FB0590111802225C
:1034A00002A816F0F5FF94F83400800761D594F86F
:1034B0004800626C10FB052300EB09010B4413F874
:1034C000013C0493A38813FB00F306FB0322114481
:1034D00011F801BC10FB0500111801EB090010F8F0
:1034E000010C45E0B4F84000B4F94220284401B290
:1034F00004F118008146236914F028FA0190B4F809
:103500004200B4F94010304402B254F8103F48462B
:1035100014F01CFA0390608E2368304402B2208EAF
:10352000284401B2484614F011FA029094F824009D
:10353000103C80071DD5B4F9422034F8400F2844D0
:1035400001B2484614F09AF904906088B4F900106A
:10355000304402B2484614F091F983466088304402
:1035600002B234F84009284401B2484614F086F902
:10357000824694F8340042464546800735D5059882
:1035800010FB08F30499C8F1FF0011FB0031C1F3EF
:1035900007211BFB08F61AFB0060C0F3072011FB94
:1035A00007F3C7F1FF0610FB06331B0AA3750229B8
:1035B00007D8022803D8002007B0BDE8F08F002705
:1035C00002E0022800D8FF270598022800D8002230
:1035D0000498022800D8FF22BBF1020F00D8002572
:1035E000BAF1020F03D8FF2501E0FF20A075EAB170
:1035F000FF2A04D0DDE9000110F0FCF90090BDB114
:10360000FF2D17D0DDE902102A4610F0F3F90490DF
:1036100097B1FF2F05D001463A46009810F0EAF91D
:103620000090BDF80000A0820120C5E70198E5E701
:103630000298ECE70398EAE7BDF81000F3E7000012
:103640002DE9F0470446B0F908000A27000260623D
:10365000B4F90A000002A062B4F90C1091FBF7F56E
:10366000684200EB800001EB4006684205F101086A
:1036700000B21EF009FA8246E84300B21EF004FAD6
:103680008146C5F15A0000B21EF0FEF90546C8F1A8
:103690005A0000B21EF0F8F9C6F10A0101FB0AF364
:1036A000024609FB0630694390FBF7F002FB061166
:1036B00091FBF7F14011E06248112063A07C14F007
:1036C000F2F994F8341060F3000184F83410A07C0F
:1036D00014F0D9F994F8341060F3410184F83410EF
:1036E000A07C042824D0052822D0062820D021F050
:1036F000040100BF84F8341021682162A16921F01F
:10370000E00160F30401A08860F39421E08860F395
:103710005F51A161E0894FF4001101EB5001B1FB51
:10372000F0F0A063FF20A075208AA082BDE8F0879A
:1037300041F00401DEE700002DE9F04115460E4698
:103740000746114C1DF02CFF80462B463246394669
:10375000204614F029FD20B10020A062E06950B19C
:1037600010E02C21204616F0DDFE4FF00040A06254
:103770000020BDE8F08140461DF00CFFE06108B973
:103780000120E0612046F4E70821012010B5142152
:10379000074800F06DFA14F0CDFC40B10549016016
:1037A00005494160054981600549C16010BDFEE7DA
:1037B000F0200120617B0108DD7E010855800108B1
:1037C0002D7B010870B50D4604461021284616F0E1
:1037D000A9FE20680078012804D0022807D0042818
:1037E00007D008E0208A2880608A688003E0E068CB
:1037F00000E00A20686020684268002A03D0294659
:10380000BDE87040104770BDFEB5866A0446BEB97B
:10381000A08A218A0844A082E08A618A0844E08262
:1038200020460AF070FC060079D020460CF0F4FE29
:1038300000220921304613F059FB607880076ED4CE
:10384000208A10B9608A002869D00025ADF804509C
:10385000ADF8085094F83C0000F00F000328304603
:1038600016D018F027FC0746304618F0DDFA03465C
:103870000C200090B4F912103A46304609F0F0FFDF
:10388000ADF80800304618F021FBC10712D017E050
:1038900018F0A4FB0746304618F040FB0246032010
:1038A0000090B4F910103B46304609F0D9FFADF84E
:1038B0000400E7E7BDF90410002901DDADF804506C
:1038C000810705D4BDF90410002901DAADF80450D0
:1038D000410705D4BDF90810002901DDADF80850F5
:1038E000000705D4BDF90800002801DAADF808503A
:1038F00002AA01A920461FF042FE0023BDF90820BC
:10390000BDF9041030461AF0E1FBA08ABDF804109E
:103910000844A082E08ABDF808100844E082FEBD99
:103920002DE9FC5F0446806A5FEA000B71D094F8D1
:103930003C0000076DD014F0FFFF019000684021AB
:10394000457E584619F060FB4FF0000818B9A4F8FE
:103950001A80A4F81880584618F09EFB82465846F4
:1039600018F0A1FB064694F83C004FF0640900F003
:103970000F000C2802D003284CD09AE0A4F818803D
:1039800056B1B4F91A50002714F0D6FF0068494622
:10399000407EC0F1640022E0608BC5F1640110FB41
:1039A00001F191FBF9F06083584618F03DFA0546A5
:1039B000584618F07FFB02460C200090B4F91A100C
:1039C0002B46584609F04CFF6083024600231EE058
:1039D0007A1917B210FB05F292FBF1F215B2002D25
:1039E000F6D1ADF80070A4F81A806A46002120468E
:1039F0001FF0C5FD41F6FF72BDF900305142584637
:103A00000AF0E6FCBDF800100123084402B20021D0
:103A10004CE09AE0A4F81A80BAF1000F0AD0B4F989
:103A20001850002714F088FF00684946407EC0F116
:103A3000640022E0208BC5F1640110FB01F191FBD1
:103A4000F9F02083584618F069FA0546584618F0F0
:103A5000C5FA034603200090B4F918102A465846C8
:103A600009F0FEFE2083014600231EE07A1917B2FA
:103A700010FB05F292FBF1F215B2002DF6D1ADF874
:103A80000070A4F818800022694620461FF077FDD8
:103A900041F6FF72BDF90030514258460AF010FC61
:103AA000BDF800100123084401B2002258461AF064
:103AB0000DFB208B002848D1608B002845D1C6B96A
:103AC000584618F0F7FA0546584618F0ADF9002D9B
:103AD00006DC00280DDD002D02DA01232A4604E071
:103AE000002806DA0123404202B2002158461AF0AB
:103AF000EDFABAF1000F19D1584618F00FFA054641
:103B0000584618F06BFA002D07DC00280EDD002D5A
:103B100003DA01230022294605E0002806DA012302
:103B20000022404201B258461AF0D0FA0A21584603
:103B3000019A13F0DBF96078800706D414F83C0F83
:103B400020F00F00207044F8148CBDE8FC9F0000AA
:103B50007FB50E46040003D110F0A2FB040023D071
:103B60000025FEB1ADF80050ADF8025010F0B0FBEA
:103B7000401EADF80400204610F0F0FB401EADF8EA
:103B800006006A46314602A8FEF7B2FC00280BD0B8
:103B90002068017C890708D5DDE90001C4E90C0132
:103BA00001202AE0A0F850517FBD82690AB102A924
:103BB000904700260BE000BF04EBC601002202A8DC
:103BC0003031FEF7BDFC0028EED1761CB6B2B4F859
:103BD0005001B042F0D880B2202804D204EBC000DB
:103BE00002A9303004E0A4F8505104F130006946D5
:103BF0000EF002F9B4F85001401CA4F850016068BE
:103C00000028D1D01DF00AFE7FBD70B5054600F03A
:103C100012F804460CE02146284600F01EF806463D
:103C20002146284600F071F8204616F031FB344654
:103C3000002CF0D170BD002800D04068704700B55E
:103C400003460022FFF7F7FF03E01846521C00F07E
:103C500004F80100F9D1104600BD0068091D405864
:103C60007047006840587047002800D0806870474F
:103C700000224260C91C21F003018260016070478C
:103C800070B504460068083016F078FA050013D0C5
:103C90000146002220461EF0EFFD294620466268BC
:103CA0001EF0E4FD616819B12A4620461EF0E4FDCD
:103CB0006560A06800B9A560284670BD70B504466F
:103CC0000068083016F05AFA050013D001460022A9
:103CD00020461EF0CBFD29462046A2681EF0CCFDF2
:103CE000A16819B12A4620461EF0C0FDA560606893
:103CF00000B96560284670BD28B1416809B980687F
:103D000008B1002070470120704770B504000DD045
:103D1000FFF791FF00228842204608D1FFF79DFF60
:103D20006060011E01D000221EE0A26070BDFFF79E
:103D30009BFF8842206808440AD10168A16029B12C
:103D40002046BDE8704000221EF090BD626070BD4C
:103D500005682046FFF781FF0646024629462046B1
:103D60001EF084FD2A4631462046BDE870401EF014
:103D700083BD10B50446006882680AB121469047A9
:103D800020680068002801D02060F5E710BD806839
:103D9000002801D0B0F91600704700002DE9F04767
:103DA000074690B0408C189E40F0040078849046FE
:103DB0003A8499468A463289384618F091FF05467A
:103DC000A7F8209032895146384618F089FF0446FA
:103DD000788CA54220F00400788403D12904B1EB4B
:103DE000044F68D0A7F8208032895146384618F031
:103DF00077FF05468046A7F82090514638460BF0DD
:103E0000E7FC318900682A461CF03CFB30896028B9
:103E100023D147F6FF794D4501D04C451DD1384699
:103E200019F0A9F800EBD0704510384619F0A3F846
:103E300000EBD0704010C84506D1691C431C994264
:103E400000DA00E0194688464C4506D1691C421C40
:103E5000914201DA6C1C00E014461948FFF710FF8C
:103E600005002BD02F60C5E903843089A8806846FF
:103E7000C5F808A00DF058FA1248FF21CDE900500E
:103E8000114802901148039000200790CDE90801E5
:103E900030880A9070889DF83E1040420B90F06880
:103EA0000690002060F300018DF83E103069059007
:103EB00068460DF02DFB10B0BDE8F087FEE700006E
:103EC000FC2001203D640208316602088D6502086D
:103ED00014210148FFF7CCBEFC2001202DE9FC5F36
:103EE000002592468B4606462C46042743F60F08CB
:103EF00043F60E0900E100BFF16807EBC400085863
:103F000082017DD480B230EA0B0212D05FF0000251
:103F100030EA0A000FD00020824271D051F83400FC
:103F200001AA41F6100100901CF072F8002868D137
:103F300003E00122ECE70120EEE701AA41F61101BE
:103F400000981CF065F8002873D101AA41F612010F
:103F500000981CF05DF800286BD101AA41F613010E
:103F600000981CF055F8002863D101AA41F615010C
:103F700000981CF04DF800285BD101AA41F614010D
:103F800000981CF045F8E0BB01AA41F269010098D5
:103F90001CF03EF8A8BB01AA43F20C0100981CF0EB
:103FA00037F870BB01AA43F20D0100981CF030F8FD
:103FB00038BB01AA41F2010100981CF029F800BBAE
:103FC00001AA41F2040100981CF022F8C8B901AA24
:103FD00041F2020100981CF01BF890B901AA41F2CD
:103FE000030100981CF014F858B901AA41F2050128
:103FF00000981CF00DF820B901AA41F2060101E079
:1040000079E016E000981CF003F890B901AA41F29B
:10401000320100981BF0FCFF58B901AA41460098F4
:104020001BF0F6FF28B901AA494600981BF0F0FFE3
:1040300010B10320BDE8FC9F01AA40F60A010098D8
:104040001BF0E6FFF0BB01AA40F60B0100981BF045
:10405000DFFFB8BB01AA414600981BF0D9FF88BB1F
:1040600001AA494600981BF0D3FF58BB01AA40F6AD
:104070003C0100981BF0CCFF20BB01AA40F63D019B
:1040800000981BF0C5FFE8B901AA40F63A01009874
:104090001BF0BEFFB0B901AA4FF4046100981BF0F9
:1040A000B7FF78B901AA40F6450100981BF0B0FFB0
:1040B00040B901AA40F6410100981BF0A9FF08B9D8
:1040C00001AA00E013E040F6420100981BF0A0FFB7
:1040D00068B901AA40F6430100981BF099FF30B976
:1040E00001AA40F6490100981BF092FF08B1022591
:1040F00001E005B90125641C708CC0F3C500A04225
:104100003FF6FAAE284695E7014840687047000040
:10411000580000207047C0F30410072800D907207A
:104120007047000010B518210348FFF7A1FD0349AF
:104130000120087010BD0000A8200120D801002037
:104140002DE9F04190460C46050015D0FCF79BF890
:104150000A4F06462146BA68284690470446BA6880
:104160002819414690470146701A03E06218AA5C7C
:104170002A55641CA042F9D2BDE8F081EC01002070
:104180002DE9F041094D90460E466A681C460746E7
:1041900019469047306020B120686A683844002191
:1041A0009047C8F80000BDE8F0810000EC01002055
:1041B0002DE9F04F87B08A46DDE910581F46934637
:1041C0000446002105B129805CB12078002809D07F
:1041D000BAF1000F05D0002618F0060F15D0002008
:1041E00004E0002007B0BDE8F08F401C215C0A29E4
:1041F00004D00D2902D00029F7D100E0401C002D89
:10420000F0D04FF0FF312980ECE75FEA887001D5EC
:1042100041F6FF77894608468DF81410049127E08F
:104220000498CDF8189068B34FF0000C05AA06ABBF
:10423000CDF80CC0CDF80080CDE9013220443B46DA
:104240005A4651461DF04AFC06997A1A314417B273
:104250000EB288B104990144049120780A280BD049
:104260000D2809D0605C0A280FD00D280DD0084613
:10427000205C08B1002FD3DC049848B105B12E8032
:104280000498AFE74FF0010CD0E7481C0490F3E727
:10429000064A04A9204652689047002DF0D00146F6
:1042A0000022504612F007FF06B2E8E7EC010020BA
:1042B0002DE9F0411746884606001ED0002F1CD07D
:1042C000FBF7E1FF04463846FBF7DDFF050014D09D
:1042D0000B4A2C444146926830469047411903E00E
:1042E000621BB25C3255641EA142F9D930442A46A1
:1042F0003946BDE8F04116F0D7B8BDE8F0810000BE
:10430000EC01002000230278232902D0012A0DD0DD
:104310000FE02AB10021012A04D0022A04D008E0CB
:10432000012101E0017004E0017001E0202902D0C8
:104330000123184670470221F6E72DE9F0410E46A9
:10434000804602460021334608461DF003FE04461F
:104350000027401C15F012FF050008D02F553346EA
:104360004246611C1DF0F6FD2846BDE8F081FEE7DF
:104370002DE9F0471E4614460D468246DDF8209092
:1043800015E000BF4FEA540808FB0657394650466F
:104390004A469047002808DD44F30000C0EB54046F
:1043A00007EB0605A4F1010401E005DA4446002C00
:1043B000E8D12046BDE8F0873846FBE72DE9FC5FF1
:1043C0009B460CAB8A468146DDE9116093E81210EA
:1043D000DDE90F575FEA80784FF030031AD45EB101
:1043E0005FEAC07808D000F00C0858EA0C0803D047
:1043F000761E01E00B55641CBC4204D2202CF9D37C
:1044000001E00B55641C5FEAC07803D0B44201D2CE
:10441000202CF6D35FEAC06825D55FEA40580AD45D
:104420004CB1BC4201D0B44205D1641E03D0102D62
:1044300003D1641E04E0102D02D0022D0AD00EE03C
:10444000850603D4202C1ED2782506E0202C1AD213
:10445000582502E0202C16D262250D55641C202C14
:1044600011D20B55641C202C0DD2BCF1000F01D0D1
:104470002D2306E0430701D52B2302E0030702D5D5
:1044800020230B55641CCDE900BAC8461546814669
:104490008B46AA46800714D1274607E02A46DDE965
:1044A00000316D1C2020C446E0477F1CB742F5D385
:1044B00007E02A466D1C641EDDE900311BF804008C
:1044C000C047002CF5D15FEA897006D409E02A467E
:1044D000DDE900316D1C2020C047A5EB0A00B04289
:1044E000F5D32846BDE8FC9F2DE9F04F8FB09946E3
:1044F0008B46DDE91818DDE91C63DDE91A479246B1
:104500008646002209B923F01003580507AD00D5EF
:10451000C9B1B1FBF4F004FB1010C0B20A2801D2FB
:10452000303009E05FEA836C02D54FF0410C01E0C6
:104530004FF0610C60440A38B1FBF4F1A854521CEE
:1045400009B1202AE5D3CDF80880CDE90563CDE98E
:104550000052CDE903474B46524659467046FFF795
:104560002DFF0FB0BDE8F08F2DE9FF4F8FB01CACD1
:10457000DDE9239594E8030820AC94E8C004002406
:1045800050EA010201D125F010056A050DF11C0861
:1045900002D550EA010217D032463B46FBF710FE27
:1045A000D2B20A2A01D2303206E0AB0601D541234D
:1045B00000E061231A440A3A08F80420641C50EA17
:1045C000010201D0202CE7D3CDE90084CDF808B05A
:1045D000CDE90595CDE9036A0FAF97E80F00FFF726
:1045E000EDFE13B0BDE8F08F09B21AF0AEBA9A42F0
:1045F00000D28854704770472DE9FF4F89B00546B7
:104600000A9800249246002800D1FE4D8FE125280B
:1046100004D02246641C53460A990BE2491C4FF011
:10462000000808460C9101782B2919D004DC2029B8
:1046300019D0232904D119E02D290ED0302909D011
:104640000026C8B2FDF734FFB0B10CA8FDF716FF85
:1046500006461FE048F001010AE048F0020107E0C9
:1046600048F0040104E048F0080101E048F01001BE
:10467000401C88460C90D6E70C9908782A2809D166
:10468000169840C81690002E02DA48F002087642CA
:10469000491C0C910C984FF0000B01782E2919D170
:1046A000401C0C9048F480680078FDF701FF20B1B1
:1046B0000CA8FDF7E3FE83460CE00C9A10782A283C
:1046C00008D1169802C81690002900DC0021521C5F
:1046D0008B460C920C9801786C290AD004DC68296E
:1046E0000FD06A2919D128E0742929D07A2914D148
:1046F00026E0401C0C90017848F480786C291CD08E
:104700000BE0401C0C90017848F08008682904D127
:1047100048F04001401C88460C9002460078692809
:1047200022D015DC62281FD00DDC252871D050283E
:104730001AD058287FF46DAF16E048F40071E9E70D
:1047400048F48071E6E7632878D06428F2D10BE062
:10475000732874D004DC6F2806D07028EAD103E0F7
:10476000752801D07828E5D178280DD058280BD0AD
:1047700070280BD0502809D06F2816D0622816D088
:104780000A2128F0100016E0102107E050781021CF
:1047900048F48878562804D1521C0C921078582876
:1047A00007D01078502804D006E0082109E0022143
:1047B00007E048F0200080461078692803D064287C
:1047C00001D028F00C085FEA485001D528F0010814
:1047D000107869281ED064281CD0562864D05FEA5F
:1047E000885072D5169804ABC01D002283E80608D5
:1047F0000292CDE9076820F007005346F0E8021264
:10480000CDE900121690224628460A99FFF7ACFE21
:1048100089E00AE15FEA885024D5169804AFC01DEC
:1048200020F00703F3E802021693002387E80A0842
:10483000CDE90768002A03DA012102E080E0A6E062
:1048400000210023029119461B1A914101DA1146F9
:1048500003E00021404261EB020153462246CDE9CC
:104860000001D1E75FEAC85004D5169804C80FE0EC
:10487000524215E05FEA486003D5169810F8042B01
:1048800006E05FEA0860F0D5169830F8042B12B203
:104890001690CDE9021BCDE90468D00F002AE7DDB0
:1048A000CDE9002053461EE01698AAEB040202C888
:1048B00016904868006800900A980B68011928460D
:1048C000FFF79AFE04442FE0FFE75FEAC8500CD5DB
:1048D000CDE9021BCDE9046816980021534604C8AF
:1048E000CDE900211690224619E05FEA486003D521
:1048F000169810F8042B08E05FEA0860169803D5B4
:1049000030F8042B92B200E004C816900020CDE9E4
:104910000020CDE9021BCDE9046853462246284613
:104920000A99FFF7E1FD04460C98401C0C900C9985
:10493000087800287FF46BAE54457DD222467DE096
:1049400001275FEA887006D509E02246641C5346B9
:1049500020200A99A84738467F1CB042F5D3169903
:104960002246641C11F8040B169153460A99A84775
:104970005FEA887006D4D7E72246641C534620209D
:104980000A99A84738467F1CB042F5D3CCE7169861
:1049900050F8049B16904B46BBF1000001D0014635
:1049A00001E04FF0FF31484600E0401C02780AB1B8
:1049B000491EFAD2C71A5FEA485003D558465F45E8
:1049C00000D307465FEA887006D512E02246641CD1
:1049D000534620200A99A84738467F1CB042F5D399
:1049E00007E000BF224609F10109641C53460A99F9
:1049F000A84799F8000040B15FEA4851F2D5BBF1F1
:104A0000010B01E0F7450008ECD25FEA887006D49C
:104A10008AE72246641C534620200A99A847384654
:104A20007F1CB042F5D37FE706E02246641C534664
:104A300025200A99A84777E7AAF1010253460020EA
:104A40000A99A8470DB02046BDE8F08F2DE9F04740
:104A500005468CB00C460846FDF71AFF3C22B0FB19
:104A6000F2F1B0FBF2F302FB1101009157A22021F9
:104A700003A81BF0B9F82046FDF700FF8146204649
:104A8000FDF7E8FE8246284616F0DAFC0546514A54
:104A9000002119F07BFA64201AF0EEF801463C225E
:104AA000284619F002FE00224B49284616F0ACF8C1
:104AB000494920220831284616F0A6F84649012225
:104AC0001031284616F0A0F84349802218312846B4
:104AD00016F09AF8002307224049284616F01CF8E1
:104AE000032C03D38021284616F087F8284613F0BC
:104AF00011F880463A4913F02BFD002601240227C5
:104B00008DE8D000234632463146404619F0A2FCDB
:104B1000284614F045FA8046494615F0ABF8CDE931
:104B2000004601231A4600214046029419F092FCE7
:104B3000294900222031404616F066F8284614F034
:104B40002FFA8046514615F095F823490022283166
:104B5000404616F059F80123009401941A460021AA
:104B60004046029419F076FC284614F019FA804663
:104B700003A915F07FF8184900223031404616F09D
:104B800043F88DE8D000022201231146404619F077
:104B900061FC284612F0BEFF0446124913F0D8FC0F
:104BA00078201AF069F80146204619F0B7FF002373
:104BB0001A460521204616F07DF83904204615F0E6
:104BC000E9FF0CB02846BDE8F087000025753A25BE
:104BD00030327500FFFF0F00F0020020B7530008CD
:104BE000980300205804002010B502004FF0000088
:104BF0000CD04B1E194200D0FEE70A44521E9A43C5
:104C0000B2F5803F02D20C2A01D9104610BD0C200B
:104C100010BD10B513F090FE13F094FE012802D0E1
:104C2000022804D10020BDE81040FDF7FFBD10BDF3
:104C300070B512F06FFF1F4C0546606D80B3012800
:104C40000AD0022811D11C49284613F081FC1B48C8
:104C5000E06540F2FF3007E01949284613F078FC80
:104C60001848E0654FF4437020660021284613F091
:104C700063FC00231A460921284616F01BF800237E
:104C80000C221149284615F047FF4FF400412846F1
:104C900016F044FB0221284615F07CFF284670BD23
:104CA000FFE70A49284613F053FC0948E0654FF432
:104CB000DE70D9E7280300201C040020507603088A
:104CC00010040020F05D0308134C000804040020C9
:104CD0001050030808444A1E401E9043114200D061
:104CE000FEE770472DE9F0410F46012100250446FB
:104CF00041862E460BE01B49FBF7CCFA10B16D1C28
:104D0000ADB202E0608E401C6086761CB6B257F8E9
:104D1000260010B101780029EDD1208EA8421ED0C6
:104D2000A06A002610B115F0B3FAA662E06A10B1CD
:104D300015F0AEFAE662E80015F020FAA06238B18C
:104D4000680015F01BFAE06218B1A16A11B102E027
:104D5000FEE7FEE70025690015F0E4FB2586BDE8C7
:104D6000F0810000282801082DE9F84F8146407A9B
:104D70000F4600F00700022819D0104680469742DF
:104D800000DD3A46164603202A4C2B4A00EB46002B
:104D900020F00305A06811681035411A636805EB1F
:104DA000010C9C4505D2416821F0004124E00846F1
:104DB000E4E79D4219D892464FF0FF3B48196168DD
:104DC000884210D9002269461C48CDF800B00BF08B
:104DD000DBFF002269461A480BF0D6FFA168DAF81B
:104DE0000000091AEAE7A068DDE7284615F0C6F9D1
:104DF000C0B1416841F0004188EA6702416089EA38
:104E000002010160416801F04041491C31F08041DC
:104E100041608681A0F80E8005D500F11001816007
:104E2000BDE8F88FFEE7A16801F110022944826015
:104E3000A160F5E760000020C8010020F5E000084F
:104E4000E90D010870B586B000228DF808208DF8B4
:104E50000C208DF81020444C90F83C20142302F0D4
:104E60000302A5784FF4B476012A23D0022A5FD03A
:104E7000AA4211D010F8265F05EB051505EB450594
:104E8000B5FBF3F52570407800EB001000EB400017
:104E9000B0FBF3F06070A27004AA03A8CDE9000291
:104EA00001EB41004FF6FF7101EA400002AB62786E
:104EB00021781AE0AA4210D0858C05EB45056D02D9
:104EC000B5FBF6F5A58090F8270000EB001000EB8D
:104ED0004000B0FBF3F06070A27004AA03A8CDE913
:104EE0000002C9B202AB62783CE008F015FE9DF802
:104EF00010209DF80C10D308BDF800209DF8080084
:104F000063F30402ADF800208A08BDF8001062F3D4
:104F10004A11ADF80010C108BDF8000061F3CF20C0
:104F2000ADF8000080B20090BDF8000006B070BD82
:104F3000AA4210D0858C05EB45056D02B5FBF6F550
:104F4000A58090F8260000EB001000EB4000B0FBBD
:104F5000F3F02070A27004AA03A8CDE90002CAB23F
:104F6000217802ABA088C0E71001002010B5084CE2
:104F7000012020700748FEF75EFE0028A06803D0DD
:104F8000BDE810401CF04ABCBDE810401CF03ABC23
:104F9000AC010020D820012010B5044690F83E0056
:104FA000626B810707D4A18F39B1A1F57F43FF3B25
:104FB00015D0491EA187A18F89B90AB181070ED5E5
:104FC00021461348FEF7A1FEFFF7D0FFE16809B1C3
:104FD000204688472046BDE8104015F059B9A16B1E
:104FE0004942E162002A11D0810702D4216B494273
:104FF000E1624110491C61F3410084F83E00616A9E
:10500000E069E1616062A06AA262606310BD0000B5
:10501000D820012070B5304D68681CF0BBFA0646F8
:10502000687880F00100687047E00020287094F8EC
:105030003E006978C0F380028A4242D061F3820068
:1050400084F83E00E16A8A19030719D4002917DCA5
:10505000002A15DBC00709D1216939B120468847EC
:10506000E1690144E161616A08446062A16809B1D3
:105070002046884794F83E0040F0080084F83E003F
:10508000E06A8019E06216D4A16A884200DDE1621C
:10509000A169204688470146206A884204D02162DF
:1050A00062680AB120689047D4E90A01814202DBB4
:1050B0002046FFF771FF287818B10848FEF7BBFDBE
:1050C00003E021460548FEF7C8FD0400ADD11CF001
:1050D00067FA686070BD0000AC010020D820012094
:1050E00070B5044640680D4608B1FFF7F9FF226825
:1050F000002A04D029462046BDE87040104770BD04
:1051000089B20CF0DEBD89B20CF017BE10B50446B2
:10511000406882080AD0496821F00301091D08444B
:105120006060204600F042F8204610BDFEE740686F
:10513000103120F00300884201D301207047002085
:1051400070472DE9FC47054648680C4620F00300EF
:1051500001AA69461DF026FADDE9007005EBC711CA
:1051600001EB80098046D9F83C0060B164B1C4E924
:10517000020504F10806C46030460421FFF7AAFDC9
:10518000864202D0FEE7FEE7FEE7C9F83C40012078
:10519000296900FA07F21143296105EB870100FA3A
:1051A00008F04A6902434A61BDE8FC8710B504462D
:1051B00000F087F8046010BD2DE9FC4706464FF06B
:1051C00000000D0000900746019042D00C46E946D1
:1051D0000DF10408802907D3084621F05DF8411F2E
:1051E00001208840401E04444246494620461DF0A6
:1051F000D9F9009C0A2C2CDA06EB8400019A40694C
:105200004FF0FF3101FA02F210400CD1641C3069FA
:10521000A14008401DD021F037F80446009006EB6D
:105220008000406978B121F02FF8034606EBC411E5
:10523000019001EB8000C76B5FB1786820F003003C
:10524000A84201D2FEE7FEE739463046009A1DF03B
:10525000D1FF3846BDE8FC8710B50446FFF7A6FF2E
:10526000416841F002014160606840F00100606007
:1052700010BD10B5044600F024F8416821F0020189
:105280004160606820F00100606010BD70B50646A6
:105290000D46084600F015F8040010D02079C0072C
:1052A0000BD0686880080BD02146304600F03CF8EF
:1052B00021462846FFF72AFF0546284670BDFEE72F
:1052C000FEE7426800F1080122F00300001F0844D5
:1052D000910800D1FEE7704770B506460C004FF00C
:1052E00000001ED0F2B120791546C0071BD0114630
:1052F0002046FFF71CFF78B12946204600F025F82C
:1053000005462046FFF752FF6868294640F0020034
:1053100068603046FFF715FF2046FFF7AAFF04F14B
:10532000080070BDFEE7FEE77CB5054648680C4600
:1053300020F0030001AA69461DF034F9DDE90023DD
:10534000214628461DF056FF7CBD2DE9F0410D4653
:10535000044600F10801281F0E18606806F10807CE
:1053600020F00300401BA0F1040838460421FFF799
:10537000B1FC874200D0FEE7606820F0030108EB33
:105380000500001D814200D0FEE7307900F00300E7
:1053900040EA0800706020F003000C2800D2FEE70D
:1053A000207900F00300284360603046FFF754FF87
:1053B0003046BDE8F08110B511F094FD16F0EDFC1B
:1053C000BDE81040FDF73EBD38B5044613F0B4FA11
:1053D000054613F0EAFA0028204605D0218FE18621
:1053E00018F0E0F8012038BD11F040FB00282046FD
:1053F0001ED011F010FA218FE08E81420CD0208750
:10540000E08E00906A461C21204611F06FFD0128B5
:10541000E9D1204618F0C6F8284613F0D2FA04283D
:10542000E0D1204616F0AEFC002112F006FAD9E7D2
:1054300011F078FBD6E770B511F054FD054616F073
:10544000E7FC044628460DF099FA01462046BDE8DF
:10545000704001221BF0CABB2DE9F04F0D4687B00A
:105460000446002116F0C4FB60B32946204600F034
:1054700061FA2946204600F06FF80021204617F017
:10548000EDFA05900021204617F0BAFB04900021A8
:10549000204617F0AFF9012800D0002080460021F7
:1054A000204617F045FD07460021204617F020FA58
:1054B00042F2D17906464F450BD1608C400508D4A5
:1054C000012707E007B02846BDE8F04F1C2115F082
:1054D00029B80027204616F009FCDFF878A083469B
:1054E00020460021BAF8022017F0FAFBD5F810C0C8
:1054F000AB682968CDF800C0CDF80C80CDE901314A
:10550000C2B239465846059B0AF0D4F928834E4565
:1055100004D1608C800501D4012600E000262046DD
:1055200016F0CAFB074620460021BAF8062017F0FD
:10553000D7FBC2B2686900246B68E9688DE81B007C
:1055400031463846049B0AF0B5F9688307B0BDE8D8
:10555000F08F0000840000202DE9F34F81B00C464D
:10556000019809F0E3FB0646019816F0BFFB82465E
:10557000304600F00BFF2061400014F02BFE20604D
:105580002069400014F026FE002541F69A79A060BB
:105590003AE036F91510DFF82081494533D100276C
:1055A000DFF818B11FE03946019816F021FB594683
:1055B000009017F030FDA8B9009809F0C9FB012848
:1055C00010D1009809F0BAFBA8420BD1009817F04F
:1055D000D2FC4146404501DA084602E0009817F047
:1055E000CAFC80467F1C019816F014FBB842DAD83A
:1055F000B8F1000F03DBA16821F8158003E0A16872
:10560000002021F815006D1C2069A842C1D8002592
:105610002F46284641F69B784B4615E036F9101088
:10562000414504DB0D44A5F5F8559B3D0BE099423F
:1056300004D1A16831F81010394403E0A26822F8BF
:10564000101039440FB2401C21698142E6D8002174
:10565000019817F003FA2169C1F1010200FB02A0D1
:10566000C01B00B2002800DA002000224FF0FF33F8
:105670001146C44611E000BF36F9117067450BDBD7
:10568000A7F5F8579B3F3AB210FB02F3B3FBF5F3D3
:10569000A76827F811300B46491C27698F42EBD8C1
:1056A000002B07DBA91A4143B1FBF5F1401AA168B1
:1056B00021F81300BDE8FE8F01E0FFFF01000600A6
:1056C0002DE9F14F00221146009818F04BFE002101
:1056D000009817F0C3F804460021009817F0A5FAC7
:1056E00020440FFA80F90021009817F063F9204454
:1056F0000FFA80F8009817F023F800EB090101EB8E
:105700000800DFF898A006B25446009816F082FA16
:10571000074600252AE0009821498068006850F873
:105720002500834617F077FCF8B9584617F09CFF20
:1057300040BB0021584617F028F818B3012821D0A3
:1057400002281FD003281DD00021584617F00CFC5A
:1057500058B9BBF81A10BBF81600081A401C00B262
:105760004844A04200DB044624B26D1CBD42D2D3A3
:10577000544504D004EB080000B2B04200DC3046CF
:10578000BDE8F88F0098BBF91A10B0F91600081A96
:10579000411CA142E8DB0C46E6E7000001E0FFFF08
:1057A000010004002DE9F84F00228046114618F050
:1057B000C3FD0021404617F051F804460021404641
:1057C00017F0CAF920440FFA80FA0021404617F07A
:1057D00068F920440FFA80F9404616F0BFFF00EB4D
:1057E000090101EB0A00DFF844B105B25C4640460E
:1057F00016F010FA07460021404616F0E6FF012891
:105800004FF0000644D078E0D8F808004849006816
:1058100050F82600009017F0FEFBC0BB009817F070
:1058200023FF50B10098B8F91810B0F91400091A04
:10583000481CA0422ADB4C1C28E00021009816F0EE
:10584000A4FF58B1032809D0062807D0082805D09E
:105850000021009817F081FB58B118E00098B8F9C2
:105860001810B0F91400081A411CA1420EDB0C46B6
:105870000CE00098143000900CF02FFB5044A04234
:1058800004DB00980CF029FB00EB0A0424B2761C20
:10589000BE42B9D35C453BD004EB090033E000BF06
:1058A000D8F808002249006850F82600009017F048
:1058B000B2FB08BB009817F0D7FE60BB0021009830
:1058C00016F063FF38B3012825D0042823D0072819
:1058D00021D00021009817F047FB68B900981430D8
:1058E00000900CF0FAFA4844A04204DB00980CF057
:1058F000F4FA00EB090424B2761CBE42D0D35C4516
:1059000006D004EB0A0000B2584501D0A84200DCE2
:105910002846BDE8F88F0098B0F91810B8F91400BF
:10592000091A481CA042E6DB4C1CE4E701E0FFFF3B
:10593000010004002DE9F84F0C46834609F020FED3
:10594000064600F023FD6061400014F043FC6060F7
:105950006069400014F03EFC002541F69A79E06051
:105960003AE036F91500DFF80C81484533D10027BD
:10597000DFF804A11FE03946584616F039F95146C0
:10598000009017F048FBA8B9009809F07FFE0128A5
:1059900010D1009809F070FEA8420BD1009816F0C3
:1059A000F6F94146404501DA084602E0009816F053
:1059B000EEF980467F1C584616F02CF9B842DAD82A
:1059C000B8F1000F03DBE16821F8158003E0E1681E
:1059D000002021F815006D1C6069A842C1D800277D
:1059E0003D46384641F69B784A4615E036F9101098
:1059F000414504DB0F44A7F5F8579B3F0BE091426C
:105A000004D1E16831F81010294403E0E36823F879
:105A1000101029440DB2401C61698142E6D8002172
:105A2000584617F0EDF88146584616F045F90146FC
:105A30006069C0F1010209FB0210401B02B2002A9A
:105A400000DA0022002043460FE000BF36F91010B4
:105A5000994209DBA1F5F8519B3912FB01F1B1FB29
:105A6000F7F1E56825F81010401C61698142EDD816
:105A7000BDE8F88F01E0FFFF010006001CB50B88B0
:105A800004892344ADF800304B8844892344ADF8A1
:105A900002308B8804892344ADF80430C9884389D7
:105AA0001944ADF806104369694698471CBD0000CB
:105AB000F8B50D46D0E90C2104468AB112787AB1C6
:105AC00041B100BF1BF093FB0D4909688847616B2A
:105AD000884211D2206B88B100200A4E009006E067
